{
  "contractName": "Payroll",
  "abi": [
    {
      "inputs": [
        {
          "internalType": "address",
          "name": "_paymentTokenAddress",
          "type": "address"
        }
      ],
      "stateMutability": "nonpayable",
      "type": "constructor"
    },
    {
      "anonymous": false,
      "inputs": [
        {
          "indexed": true,
          "internalType": "address",
          "name": "",
          "type": "address"
        },
        {
          "indexed": false,
          "internalType": "uint256",
          "name": "_amountClaimed",
          "type": "uint256"
        },
        {
          "indexed": false,
          "internalType": "uint256",
          "name": "_timeOfClaim",
          "type": "uint256"
        }
      ],
      "name": "ClaimedSalary",
      "type": "event"
    },
    {
      "anonymous": false,
      "inputs": [
        {
          "indexed": true,
          "internalType": "address",
          "name": "",
          "type": "address"
        },
        {
          "indexed": false,
          "internalType": "uint256",
          "name": "_timeOfLeave",
          "type": "uint256"
        }
      ],
      "name": "EmployeeLeaveRequest",
      "type": "event"
    },
    {
      "anonymous": false,
      "inputs": [
        {
          "indexed": true,
          "internalType": "address",
          "name": "",
          "type": "address"
        },
        {
          "indexed": false,
          "internalType": "uint256",
          "name": "_durationOfLeave",
          "type": "uint256"
        }
      ],
      "name": "EmployeeResumeLeave",
      "type": "event"
    },
    {
      "anonymous": false,
      "inputs": [
        {
          "indexed": true,
          "internalType": "address",
          "name": "_employee",
          "type": "address"
        },
        {
          "indexed": false,
          "internalType": "uint256",
          "name": "_timeOfEmployment",
          "type": "uint256"
        }
      ],
      "name": "NewEmployeeAdded",
      "type": "event"
    },
    {
      "anonymous": false,
      "inputs": [
        {
          "indexed": true,
          "internalType": "address",
          "name": "previousOwner",
          "type": "address"
        },
        {
          "indexed": true,
          "internalType": "address",
          "name": "newOwner",
          "type": "address"
        }
      ],
      "name": "OwnershipTransferred",
      "type": "event"
    },
    {
      "anonymous": false,
      "inputs": [
        {
          "indexed": true,
          "internalType": "address",
          "name": "_exEmployee",
          "type": "address"
        },
        {
          "indexed": false,
          "internalType": "uint256",
          "name": "_timeOfRemoval",
          "type": "uint256"
        }
      ],
      "name": "RemovedEmployee",
      "type": "event"
    },
    {
      "anonymous": false,
      "inputs": [
        {
          "indexed": true,
          "internalType": "address",
          "name": "_employee",
          "type": "address"
        },
        {
          "indexed": false,
          "internalType": "uint256",
          "name": "oldSalary",
          "type": "uint256"
        },
        {
          "indexed": false,
          "internalType": "uint256",
          "name": "newSalary",
          "type": "uint256"
        },
        {
          "indexed": false,
          "internalType": "uint256",
          "name": "_timeOfUpdate",
          "type": "uint256"
        }
      ],
      "name": "SalaryChanged",
      "type": "event"
    },
    {
      "anonymous": false,
      "inputs": [
        {
          "indexed": true,
          "internalType": "address",
          "name": "_employee",
          "type": "address"
        },
        {
          "indexed": false,
          "internalType": "uint256",
          "name": "_amountPaid",
          "type": "uint256"
        },
        {
          "indexed": false,
          "internalType": "uint256",
          "name": "_timeOfSeverance",
          "type": "uint256"
        }
      ],
      "name": "severanceFeePaid",
      "type": "event"
    },
    {
      "inputs": [],
      "name": "_owner",
      "outputs": [
        {
          "internalType": "address",
          "name": "",
          "type": "address"
        }
      ],
      "stateMutability": "view",
      "type": "function",
      "constant": true
    },
    {
      "inputs": [],
      "name": "employed",
      "outputs": [
        {
          "internalType": "uint256",
          "name": "",
          "type": "uint256"
        }
      ],
      "stateMutability": "view",
      "type": "function",
      "constant": true
    },
    {
      "inputs": [],
      "name": "employeePaymentToken",
      "outputs": [
        {
          "internalType": "contract IERC20",
          "name": "",
          "type": "address"
        }
      ],
      "stateMutability": "view",
      "type": "function",
      "constant": true
    },
    {
      "inputs": [
        {
          "internalType": "address",
          "name": "",
          "type": "address"
        }
      ],
      "name": "employeeRecord",
      "outputs": [
        {
          "internalType": "address",
          "name": "employee",
          "type": "address"
        },
        {
          "internalType": "string",
          "name": "name",
          "type": "string"
        },
        {
          "internalType": "uint256",
          "name": "age",
          "type": "uint256"
        },
        {
          "internalType": "uint256",
          "name": "salaryAmount",
          "type": "uint256"
        },
        {
          "internalType": "uint256",
          "name": "timeOfEmployment",
          "type": "uint256"
        },
        {
          "internalType": "uint256",
          "name": "EmissionRatePerMinute",
          "type": "uint256"
        },
        {
          "internalType": "uint256",
          "name": "timeOfLeaveRequest",
          "type": "uint256"
        },
        {
          "internalType": "uint256",
          "name": "timeOfLeaveResumption",
          "type": "uint256"
        },
        {
          "internalType": "bool",
          "name": "hasBeenOnLeave",
          "type": "bool"
        }
      ],
      "stateMutability": "view",
      "type": "function",
      "constant": true
    },
    {
      "inputs": [
        {
          "internalType": "address",
          "name": "",
          "type": "address"
        }
      ],
      "name": "isEmployed",
      "outputs": [
        {
          "internalType": "bool",
          "name": "",
          "type": "bool"
        }
      ],
      "stateMutability": "view",
      "type": "function",
      "constant": true
    },
    {
      "inputs": [],
      "name": "owner",
      "outputs": [
        {
          "internalType": "address",
          "name": "",
          "type": "address"
        }
      ],
      "stateMutability": "view",
      "type": "function",
      "constant": true
    },
    {
      "inputs": [],
      "name": "renounceOwnership",
      "outputs": [],
      "stateMutability": "nonpayable",
      "type": "function"
    },
    {
      "inputs": [],
      "name": "salaryWaitWindow",
      "outputs": [
        {
          "internalType": "uint256",
          "name": "",
          "type": "uint256"
        }
      ],
      "stateMutability": "view",
      "type": "function",
      "constant": true
    },
    {
      "inputs": [
        {
          "internalType": "address",
          "name": "newOwner",
          "type": "address"
        }
      ],
      "name": "transferOwnership",
      "outputs": [],
      "stateMutability": "nonpayable",
      "type": "function"
    },
    {
      "inputs": [
        {
          "internalType": "address",
          "name": "employee",
          "type": "address"
        },
        {
          "internalType": "string",
          "name": "name",
          "type": "string"
        },
        {
          "internalType": "uint256",
          "name": "age",
          "type": "uint256"
        },
        {
          "internalType": "uint256",
          "name": "salaryAmount",
          "type": "uint256"
        }
      ],
      "name": "addEmployee",
      "outputs": [],
      "stateMutability": "nonpayable",
      "type": "function"
    },
    {
      "inputs": [
        {
          "internalType": "address",
          "name": "employee",
          "type": "address"
        }
      ],
      "name": "getEmployee",
      "outputs": [
        {
          "internalType": "string",
          "name": "name",
          "type": "string"
        },
        {
          "internalType": "uint256",
          "name": "age",
          "type": "uint256"
        },
        {
          "internalType": "uint256",
          "name": "salaryAmount",
          "type": "uint256"
        },
        {
          "internalType": "uint256",
          "name": "timeOfEmployment",
          "type": "uint256"
        },
        {
          "internalType": "uint256",
          "name": "balance",
          "type": "uint256"
        },
        {
          "internalType": "uint256",
          "name": "MinuteRate",
          "type": "uint256"
        }
      ],
      "stateMutability": "nonpayable",
      "type": "function"
    },
    {
      "inputs": [
        {
          "internalType": "address[]",
          "name": "employees",
          "type": "address[]"
        }
      ],
      "name": "removeEmployee",
      "outputs": [],
      "stateMutability": "nonpayable",
      "type": "function"
    },
    {
      "inputs": [],
      "name": "getEmployeeCount",
      "outputs": [
        {
          "internalType": "uint256",
          "name": "",
          "type": "uint256"
        }
      ],
      "stateMutability": "view",
      "type": "function",
      "constant": true
    },
    {
      "inputs": [
        {
          "internalType": "address",
          "name": "employee",
          "type": "address"
        },
        {
          "internalType": "uint256",
          "name": "newSalary",
          "type": "uint256"
        }
      ],
      "name": "updateSalaryAmount",
      "outputs": [],
      "stateMutability": "nonpayable",
      "type": "function"
    },
    {
      "inputs": [],
      "name": "requestLeave",
      "outputs": [],
      "stateMutability": "nonpayable",
      "type": "function"
    },
    {
      "inputs": [],
      "name": "resumeLeave",
      "outputs": [],
      "stateMutability": "nonpayable",
      "type": "function"
    },
    {
      "inputs": [
        {
          "internalType": "uint256",
          "name": "amountToWithdraw",
          "type": "uint256"
        }
      ],
      "name": "claimPayment",
      "outputs": [],
      "stateMutability": "nonpayable",
      "type": "function"
    }
  ],
  "bytecode": "0x6080604052601e60025534801561001557600080fd5b5060405162001cd138038062001cd1833981016040819052610036916100bd565b61003f3361006d565b600380546001600160a01b039092166001600160a01b031992831617905560018054909116331790556100ed565b600080546001600160a01b038381166001600160a01b0319831681178455604051919092169283917f8be0079c531659141344cd1fd0a4f28419497f9722a3daafe3b4186f6b6457e09190a35050565b6000602082840312156100cf57600080fd5b81516001600160a01b03811681146100e657600080fd5b9392505050565b611bd480620000fd6000396000f3fe608060405234801561001057600080fd5b506004361061010b5760003560e01c80638da5cb5b116100a2578063bc97770c11610071578063bc97770c1461023b578063c2a63e3b14610252578063c63fdcc71461025a578063d8d41a3c1461026d578063f2fde38b1461027657600080fd5b80638da5cb5b146101fc578063a86e17151461020d578063b2bdfa7b14610215578063b93d8e121461022857600080fd5b806378888548116100de57806378888548146101635780637d1da8561461018b5780637ee4c8021461019e5780638456b05d146101c957600080fd5b806332648e0914610110578063424d45c41461013e578063711e40e214610153578063715018a61461015b575b600080fd5b61012361011e3660046115ea565b610289565b60405161013596959493929190611659565b60405180910390f35b61015161014c366004611695565b6103de565b005b610151610508565b61015161063d565b6101766101713660046115ea565b610651565b604051610135999897969594939291906116bf565b610151610199366004611766565b61072f565b6003546101b1906001600160a01b031681565b6040516001600160a01b039091168152602001610135565b6101ec6101d73660046115ea565b60066020526000908152604090205460ff1681565b6040519015158152602001610135565b6000546001600160a01b03166101b1565b610151610919565b6001546101b1906001600160a01b031681565b610151610236366004611813565b610a3f565b61024460045481565b604051908152602001610135565b600454610244565b6101516102683660046118c8565b610c17565b61024460025481565b6101516102843660046115ea565b610f00565b6001600160a01b038116600090815260066020526040812054606091908190819081908190879060ff166102d85760405162461bcd60e51b81526004016102cf906118e1565b60405180910390fd5b6102e0610f79565b6001600160a01b038816600090815260056020526040902061030189610fd3565b6001600160a01b038a166000908152600583016020526040902081905560028201546003830154600484015460068501546001860180549095919086906103479061190b565b80601f01602080910402602001604051908101604052809291908181526020018280546103739061190b565b80156103c05780601f10610395576101008083540402835291602001916103c0565b820191906000526020600020905b8154815290600101906020018083116103a357829003601f168201915b50505050509550975097509750975097509750505091939550919395565b6001600160a01b038216600090815260066020526040902054829060ff166104185760405162461bcd60e51b81526004016102cf906118e1565b610420610f79565b6001600160a01b0383166000908152600560209081526040808320600981019092529091205460ff16156104ac5760405162461bcd60e51b815260206004820152602d60248201527f43616e2774207570646174652073616c617279207768656e20656d706c6f796560448201526c65206973206f6e206c6561766560981b60648201526084016102cf565b600381018054908490556040805182815260208101869052428183015290516001600160a01b038716917f9d65c95e400b9ce04fc5cf056d3b65d627efc590d96f56466e6c77f01b9e7404919081900360600190a25050505050565b3360008181526006602052604090205460ff166105375760405162461bcd60e51b81526004016102cf906118e1565b336000908152600560209081526040808320600981019092529091205460ff1661059a5760405162461bcd60e51b8152602060048201526014602482015273596f7520617265206e6f74206f6e206c6561766560601b60448201526064016102cf565b8060060160009055603c6018601e83600301546105b79190611955565b6105c19190611955565b6105cb9190611955565b60068201553360009081526009820160205260408120805460ff1916905542600c8301819055600b8301546105ff91611977565b60405181815290915033907ffe90c8893c23b33340c941f2bdf08e6eea24c5664f79c0b7e79a13e47609948c906020015b60405180910390a2505050565b610645610f79565b61064f6000611387565b565b600560205260009081526040902080546001820180546001600160a01b03909216929161067d9061190b565b80601f01602080910402602001604051908101604052809291908181526020018280546106a99061190b565b80156106f65780601f106106cb576101008083540402835291602001916106f6565b820191906000526020600020905b8154815290600101906020018083116106d957829003601f168201915b505050506002830154600384015460048501546006860154600b870154600c880154600d90980154969794969395509193909260ff1689565b610737610f79565b805160005b81811015610914576006600084838151811061075a5761075a61198e565b6020908102919091018101516001600160a01b031682528101919091526040016000205460ff1615610902576107a883828151811061079b5761079b61198e565b60200260200101516113d7565b600560008483815181106107be576107be61198e565b6020908102919091018101516001600160a01b03168252810191909152604001600090812080546001600160a01b0319168155906107ff6001830182611580565b6002820160009055600382016000905560048201600090556006820160009055600b820160009055600c820160009055600d820160006101000a81549060ff0219169055505060006006600085848151811061085d5761085d61198e565b6020908102919091018101516001600160a01b031682528101919091526040016000908120805460ff19169215159290921790915560048054916108a0836119a4565b91905055508281815181106108b7576108b761198e565b60200260200101516001600160a01b03167fc9d73daca8024767a3fb8054013312ee53409119ea6d3f6820705bd15da32a61426040516108f991815260200190565b60405180910390a25b8061090c816119bb565b91505061073c565b505050565b3360008181526006602052604090205460ff166109485760405162461bcd60e51b81526004016102cf906118e1565b336000908152600560209081526040808320600981019092529091205460ff16156109b55760405162461bcd60e51b815260206004820152601860248201527f596f752061726520616c7265616479206f6e206c65617665000000000000000060448201526064016102cf565b60006109c033610fd3565b336000818152600a85016020908152604080832085905560068701839055600987018252918290208054600160ff19918216811790925542600b8901819055600d890180549092169092179055915191825292935090917f6e639c23b8853a787b84528dd41824445f35cd4ea50636a541e8e851c12df1d49101610630565b610a47610f79565b6001600160a01b038416610a9d5760405162461bcd60e51b815260206004820152601c60248201527f456d706c6f7965652063616e6e6f74206265206164647265737320300000000060448201526064016102cf565b6001600160a01b03841660009081526006602052604090205460ff1615610b065760405162461bcd60e51b815260206004820152601860248201527f456d706c6f796565203d616c726561647920657869737473000000000000000060448201526064016102cf565b426000603c6018610b18601e86611955565b610b229190611955565b610b2c9190611955565b6001600160a01b038716600081815260056020526040902080546001600160a01b031916909117815590915060018101610b668782611a22565b5060028101859055610b8084670de0b6b3a7640000611ae2565b6003820155600480820184905560068083018490556001600160a01b038916600090815260209190915260408120805460ff1916600117905581549190610bc6836119bb565b9190505550866001600160a01b03167f270791eaf3f29d743abb8bef10e91f611507361917e65e3ce9ffc4748b2f8e7084604051610c0691815260200190565b60405180910390a250505050505050565b600254336000908152600560205260408120600401549091610c3891611b01565b9050804211610c895760405162461bcd60e51b815260206004820152601f60248201527f596f7520617265206e6f7420757020666f72207061796d656e74207965742e0060448201526064016102cf565b3360008181526006602052604090205460ff16610cb85760405162461bcd60e51b81526004016102cf906118e1565b6003546001546040516370a0823160e01b81526001600160a01b039182166004820152859260009216906370a0823190602401602060405180830381865afa158015610d08573d6000803e3d6000fd5b505050506040513d601f19601f82011682018060405250810190610d2c9190611b19565b336000908152600560205260409020600301549091508190610d4f908490611977565b10610d6c5760405162461bcd60e51b81526004016102cf90611b32565b610d7533610fd3565b50610d8885670de0b6b3a7640000611ae2565b336000908152600560208181526040808420928301909152909120549196509086811015610e1e5760405162461bcd60e51b815260206004820152603960248201527f596f75722062616c616e6365206973206c657373207468616e2074686520616d60448201527f6f756e7420796f75207769736820746f2077697468647261770000000000000060648201526084016102cf565b6003546001546040516323b872dd60e01b81526001600160a01b039182166004820152336024820152604481018a90529116906323b872dd906064016020604051808303816000875af1158015610e79573d6000803e3d6000fd5b505050506040513d601f19601f82011682018060405250810190610e9d9190611b7c565b503360008181526007840160209081526040808320429081905560088701835292819020805460ff191660011790558051858152918201929092527f7b5a0607f70e4e4f6ca8945df2e99e967bd0a40b8be121772719054a65958e709101610c06565b610f08610f79565b6001600160a01b038116610f6d5760405162461bcd60e51b815260206004820152602660248201527f4f776e61626c653a206e6577206f776e657220697320746865207a65726f206160448201526564647265737360d01b60648201526084016102cf565b610f7681611387565b50565b6000546001600160a01b0316331461064f5760405162461bcd60e51b815260206004820181905260248201527f4f776e61626c653a2063616c6c6572206973206e6f7420746865206f776e657260448201526064016102cf565b6001600160a01b03811660009081526005602090815260408083206009810190925282205460ff1615611032576001600160a01b0390921660009081526005830160209081526040808320839055600a90940190529190912054919050565b6001600160a01b038316600090815260098201602052604090205460ff1615801561107857506001600160a01b038316600090815260088201602052604090205460ff16155b80156110895750600d81015460ff16155b156111005760008160040154426110a09190611977565b6001600160a01b038516600090815260058401602052604081208190556006840154919250906110d1603c84611955565b6110db9190611ae2565b6001600160a01b03909516600090815260059093016020525050604090208290555090565b6001600160a01b038316600090815260098201602052604090205460ff1615801561114657506001600160a01b038316600090815260088201602052604090205460ff16155b80156111565750600d81015460ff165b1561123457600081600c01544261116d9190611977565b905060008260060154603c836111839190611955565b61118d9190611ae2565b336000908152600a850160205260409020549091506111ee5760405162461bcd60e51b815260206004820152601d60248201527f4572726f723a596f75206e657665722077656e74206f6e204c6561766500000060448201526064016102cf565b336000908152600a8401602052604081205461120b908390611b01565b6001600160a01b0390961660009081526005909401602052505060409091208390555090919050565b6001600160a01b038316600090815260098201602052604090205460ff1615801561127957506001600160a01b038316600090815260088201602052604090205460ff165b801561128a5750600d81015460ff16155b156112ca576001600160a01b03831660009081526007820160205260408120546112b49042611977565b905060008260060154603c836110d19190611955565b6001600160a01b038316600090815260098201602052604090205460ff1615801561130f57506001600160a01b038316600090815260088201602052604090205460ff165b801561131f5750600d81015460ff165b15611381576001600160a01b0383166000908152600782016020526040902054600c820154111561135c57600081600c01544261116d9190611977565b6001600160a01b03831660009081526007820160205260408120546112b49042611977565b50919050565b600080546001600160a01b038381166001600160a01b0319831681178455604051919092169283917f8be0079c531659141344cd1fd0a4f28419497f9722a3daafe3b4186f6b6457e09190a35050565b6113df610f79565b6113e881610fd3565b6003546001546040516370a0823160e01b81526001600160a01b03918216600482015260009291909116906370a0823190602401602060405180830381865afa158015611439573d6000803e3d6000fd5b505050506040513d601f19601f8201168201806040525081019061145d9190611b19565b336000908152600560205260409020600301549091508190611480908490611977565b1061149d5760405162461bcd60e51b81526004016102cf90611b32565b6003546001546001600160a01b03918216916323b872dd9116856114c081610fd3565b6040516001600160e01b031960e086901b1681526001600160a01b03938416600482015292909116602483015260448201526064016020604051808303816000875af1158015611514573d6000803e3d6000fd5b505050506040513d601f19601f820116820180604052508101906115389190611b7c565b50826001600160a01b03167fbb554e84015c6f7fbdcf27fe4210b3e33cc6ac01c9230b0a20b4508cb2a6ce9b61156d85610fd3565b6040805191825242602083015201610630565b50805461158c9061190b565b6000825580601f1061159c575050565b601f016020900490600052602060002090810190610f7691905b808211156115ca57600081556001016115b6565b5090565b80356001600160a01b03811681146115e557600080fd5b919050565b6000602082840312156115fc57600080fd5b611605826115ce565b9392505050565b6000815180845260005b8181101561163257602081850181015186830182015201611616565b81811115611644576000602083870101525b50601f01601f19169290920160200192915050565b60c08152600061166c60c083018961160c565b60208301979097525060408101949094526060840192909252608083015260a090910152919050565b600080604083850312156116a857600080fd5b6116b1836115ce565b946020939093013593505050565b6001600160a01b038a168152610120602082018190526000906116e48382018c61160c565b604084019a909a5250506060810196909652608086019490945260a085019290925260c084015260e083015215156101009091015292915050565b634e487b7160e01b600052604160045260246000fd5b604051601f8201601f1916810167ffffffffffffffff8111828210171561175e5761175e61171f565b604052919050565b6000602080838503121561177957600080fd5b823567ffffffffffffffff8082111561179157600080fd5b818501915085601f8301126117a557600080fd5b8135818111156117b7576117b761171f565b8060051b91506117c8848301611735565b81815291830184019184810190888411156117e257600080fd5b938501935b83851015611807576117f8856115ce565b825293850193908501906117e7565b98975050505050505050565b6000806000806080858703121561182957600080fd5b611832856115ce565b935060208086013567ffffffffffffffff8082111561185057600080fd5b818801915088601f83011261186457600080fd5b8135818111156118765761187661171f565b611888601f8201601f19168501611735565b9150808252898482850101111561189e57600080fd5b80848401858401376000908201909301929092525093969395505050506040820135916060013590565b6000602082840312156118da57600080fd5b5035919050565b60208082526010908201526f3737ba1030b71032b6b83637bcb2b29760811b604082015260600190565b600181811c9082168061191f57607f821691505b60208210810361138157634e487b7160e01b600052602260045260246000fd5b634e487b7160e01b600052601160045260246000fd5b60008261197257634e487b7160e01b600052601260045260246000fd5b500490565b6000828210156119895761198961193f565b500390565b634e487b7160e01b600052603260045260246000fd5b6000816119b3576119b361193f565b506000190190565b6000600182016119cd576119cd61193f565b5060010190565b601f82111561091457600081815260208120601f850160051c810160208610156119fb5750805b601f850160051c820191505b81811015611a1a57828155600101611a07565b505050505050565b815167ffffffffffffffff811115611a3c57611a3c61171f565b611a5081611a4a845461190b565b846119d4565b602080601f831160018114611a855760008415611a6d5750858301515b600019600386901b1c1916600185901b178555611a1a565b600085815260208120601f198616915b82811015611ab457888601518255948401946001909101908401611a95565b5085821015611ad25787850151600019600388901b60f8161c191681555b5050505050600190811b01905550565b6000816000190483118215151615611afc57611afc61193f565b500290565b60008219821115611b1457611b1461193f565b500190565b600060208284031215611b2b57600080fd5b5051919050565b6020808252602a908201527f546865726520617265206e6f7420656e6f75676820746f6b656e73206c656674604082015269103a379031b630b4b69760b11b606082015260800190565b600060208284031215611b8e57600080fd5b8151801515811461160557600080fdfea2646970667358221220d57db1335e958f624948f3190504f84bcbe215b97fb3f6a62bebe8e40ee3f70d64736f6c634300080f0033",
  "immutableReferences": {},
  "source": "// SPDX-License-Identifier: MIT\r\npragma solidity ^0.8.15;\r\n\r\nimport \"../node_modules/@openzeppelin/contracts/access/Ownable.sol\";\r\nimport \"../node_modules/@openzeppelin/contracts/token/ERC20/IERC20.sol\";\r\n\r\ncontract Payroll is Ownable{\r\n    /// bytes32 private merklerootOfEmployees ;\r\n    address public _owner;\r\n    uint256 public salaryWaitWindow = 30 seconds;\r\n   IERC20 public employeePaymentToken;\r\n\r\n   constructor(address _paymentTokenAddress){\r\n    employeePaymentToken = IERC20(_paymentTokenAddress);\r\n    _owner = msg.sender;\r\n   \r\n\r\n   }\r\n\r\n    struct NewEmployee{\r\n        address employee;\r\n        string name;\r\n        uint256 age;\r\n        uint256 salaryAmount;\r\n        // bool hasInteractedWithSalary;\r\n        uint256 timeOfEmployment;\r\n        // uint256 estimatedtimeOfSalary;\r\n        // bool    receivedFullPayment;\r\n        mapping(address => uint256) balance;\r\n        uint256 EmissionRatePerMinute;\r\n        mapping(address => uint256) employeeWithdrawalTime;\r\n        mapping(address => bool) claimedPaymentAtAnyTime;\r\n        mapping(address => bool) isEmployeeOnLeave;\r\n        mapping(address => uint256) balanceBeforeLeave;\r\n        uint256 timeOfLeaveRequest;\r\n        uint256 timeOfLeaveResumption;\r\n        bool hasBeenOnLeave;\r\n    }\r\n     uint256 public employed;\r\n    //  mapping(uint256 =>NewEmployee) employedWorkers;\r\n    \r\n    mapping(address => NewEmployee) public employeeRecord;\r\n    mapping(address => bool) public isEmployed;\r\n\r\n    event NewEmployeeAdded(address indexed _employee,uint256 _timeOfEmployment);\r\n    event RemovedEmployee(address indexed _exEmployee,uint256 _timeOfRemoval);\r\n    event SalaryChanged(address indexed _employee,uint256 oldSalary, uint256 newSalary, uint256 _timeOfUpdate);\r\n\r\n    event ClaimedSalary(address indexed,uint256 _amountClaimed,uint256 _timeOfClaim);\r\n    event severanceFeePaid(address indexed _employee,uint256 _amountPaid,uint256 _timeOfSeverance);\r\n\r\n    event EmployeeLeaveRequest(address indexed , uint256 _timeOfLeave);\r\n    event EmployeeResumeLeave(address indexed, uint256 _durationOfLeave);\r\n    \r\n\r\n    modifier isPaymentDue(){\r\n        uint256 dueDate = employeeRecord[msg.sender].timeOfEmployment + salaryWaitWindow;\r\n        require( block.timestamp > dueDate,\"You are not up for payment yet.\");\r\n        \r\n\r\n        _;\r\n    }\r\n    modifier enoughTokensLeft(uint256 amountToWithdraw) {\r\n        uint256 tokensLeft = employeePaymentToken.balanceOf(_owner);\r\n        require((employeeRecord[msg.sender].salaryAmount -amountToWithdraw) < tokensLeft, \"There are not enough tokens left to claim.\");\r\n        _;\r\n    }\r\n    modifier checkIfEmployed(address employeeCheck) {\r\n        require(isEmployed[employeeCheck],\"not an employee.\");\r\n        _;\r\n    }\r\n    \r\n\r\n    function addEmployee(address employee,string memory name , uint256 age,uint256 salaryAmount ) public onlyOwner{\r\n        require(employee != address(0),\"Employee cannot be address 0\");\r\n        require(!isEmployed[employee],\"Employee =already exists\");\r\n        uint256 timeOfEmployment_ = block.timestamp;\r\n        uint256 EmissionRatePerMinute_ = salaryAmount/30/24/60;\r\n\r\n        NewEmployee storage nE= employeeRecord[employee];\r\n        nE.employee = employee;\r\n        nE.name = name;\r\n        nE.age=age;\r\n        nE.salaryAmount=salaryAmount *10 **18;\r\n        nE.timeOfEmployment=timeOfEmployment_;\r\n       \r\n        nE.EmissionRatePerMinute = EmissionRatePerMinute_;\r\n    \r\n\r\n        // employeeRecord[employee] = NewEmployee(employee,name,age,salaryAmount,timeOfEmployment_,timeOfEmployment_+salaryWaitWindow,0);\r\n        // uint256 \r\n\r\n        isEmployed[employee] = true;\r\n        employed++;\r\n\r\n        emit NewEmployeeAdded(employee,timeOfEmployment_);\r\n\r\n    }\r\n   \r\n    function getEmployee(address employee) public  checkIfEmployed(employee) onlyOwner\r\n     returns(\r\n\r\n        string  memory name,\r\n        uint256 age,\r\n        uint256 salaryAmount,\r\n        uint256 timeOfEmployment,\r\n      \r\n        uint256 balance,\r\n        uint256 MinuteRate\r\n\r\n    )\r\n    {\r\n\r\n       NewEmployee storage _Employee = employeeRecord[employee];\r\n\r\n    //    uint256 emittedTime =block.timestamp -_Employee.timeOfEmployment;\r\n    //     delete _Employee.balance[employee];\r\n    //     uint256 newBalance = emittedTime * _Employee.hourlyEmissionRate;\r\n    //     _Employee.balance[employee] =newBalance;\r\n      \r\n       _Employee.balance[employee]= getBalance(employee);\r\n\r\n       return (\r\n\r\n       _Employee.name,\r\n        _Employee.age,\r\n        _Employee.salaryAmount,\r\n        _Employee.timeOfEmployment,\r\n        // _Employee.estimatedtimeOfSalary,\r\n        _Employee.balance[employee],\r\n        _Employee.EmissionRatePerMinute\r\n        ) ;\r\n\r\n    }\r\n    function removeEmployee(address[] memory employees) public onlyOwner{\r\n        uint256 j = employees.length;\r\n        for(uint i =0; i<j; i++){\r\n          if( isEmployed[employees[i]]){\r\n            //   getBalance(employees[i]);\r\n            severanceFee(employees[i]);\r\n\r\n            delete  employeeRecord[employees[i]];\r\n             isEmployed[employees[i]] = false;\r\n             employed--;\r\n             emit RemovedEmployee(employees[i],block.timestamp);\r\n\r\n          }\r\n        }\r\n    }\r\n    function  getEmployeeCount() public view returns(uint256){\r\n        return employed;\r\n    }\r\n    // function estimatedTimeBeforeSalary() public view returns(uint256)  {\r\n        \r\n    //    uint256 dateOfsalary = employeeRecord[msg.sender].estimatedtimeOfSalary;\r\n    //    uint256 timeBeforeSalary = dateOfsalary - block.timestamp;\r\n    //    return timeBeforeSalary;\r\n\r\n\r\n    // }\r\n    function updateSalaryAmount(address employee,uint256 newSalary) public  checkIfEmployed(employee) onlyOwner{\r\n         NewEmployee storage _Employee = employeeRecord[employee];\r\n         require(!_Employee.isEmployeeOnLeave[employee], \"Can't update salary when employee is on leave\");\r\n         uint256 oldSalary = _Employee.salaryAmount;\r\n         delete _Employee.salaryAmount;\r\n         _Employee.salaryAmount= newSalary;\r\n         require(_Employee.salaryAmount == newSalary,\"Salary has not been updated\" );\r\n         emit SalaryChanged((employee),oldSalary, newSalary, block.timestamp);\r\n\r\n    }\r\n\r\n    // function claimPayment()public checkIfEmployed(msg.sender) isPaymentDue{\r\n    //     NewEmployee storage _employee =employeeRecord[msg.sender];\r\n    //     if(!_employee.receivedFullPayment){\r\n    //          uint256 salary = _employee.salaryAmount;\r\n    //          require(salary <= employeePaymentToken.balanceOf(_owner));\r\n          \r\n    //        employeePaymentToken.transferFrom(_owner,msg.sender,salary);\r\n    //        _employee.receivedFullPayment= true;\r\n    //     }\r\n\r\n    // }\r\n    // mapping(address => uint256) employeeWithdrawalTime;\r\n    function getBalance(address employee) internal returns(uint256 balance){\r\n         \r\n        NewEmployee storage _Employee = employeeRecord[employee];\r\n\r\n        if(_Employee.isEmployeeOnLeave[employee]){\r\n            delete  _Employee.balance[employee];\r\n            return _Employee.balanceBeforeLeave[employee];\r\n\r\n        }\r\n        else if (!_Employee.isEmployeeOnLeave[employee] &&!_Employee.claimedPaymentAtAnyTime[employee] &&!_Employee.hasBeenOnLeave){\r\n              uint256 emittedTime =block.timestamp -_Employee.timeOfEmployment;\r\n              delete _Employee.balance[employee];\r\n              uint256 newBalance = emittedTime/60 * _Employee.EmissionRatePerMinute;\r\n               delete  _Employee.balance[employee];\r\n            _Employee.balance[employee] =newBalance;\r\n            return _Employee.balance[employee];\r\n             \r\n        }\r\n        else if(!_Employee.isEmployeeOnLeave[employee] &&!_Employee.claimedPaymentAtAnyTime[employee] &&_Employee.hasBeenOnLeave)\r\n         {\r\n              uint256 emittedTime =block.timestamp -_Employee.timeOfLeaveResumption;\r\n              \r\n              uint256 EmittedBalance = emittedTime/60 * _Employee.EmissionRatePerMinute;\r\n              require(_Employee.balanceBeforeLeave[msg.sender] > 0, \"Error:You never went on Leave\");\r\n              uint256 newBalance =_Employee.balanceBeforeLeave[msg.sender] + EmittedBalance;\r\n              delete  _Employee.balance[employee];\r\n              _Employee.balance[employee] =newBalance;\r\n              return _Employee.balance[employee];\r\n\r\n        }\r\n        else if (!_Employee.isEmployeeOnLeave[employee] &&_Employee.claimedPaymentAtAnyTime[employee] &&!_Employee.hasBeenOnLeave) \r\n        {\r\n            uint256 emittedTime = block.timestamp - _Employee.employeeWithdrawalTime[employee];\r\n\r\n            uint256 newBalance = emittedTime/60 * _Employee.EmissionRatePerMinute;\r\n            // uint256 newBalance =\r\n            delete _Employee.balance[employee];\r\n            _Employee.balance[employee] =newBalance;\r\n            return _Employee.balance[employee];\r\n        }\r\n        else if(!_Employee.isEmployeeOnLeave[employee] &&_Employee.claimedPaymentAtAnyTime[employee] &&_Employee.hasBeenOnLeave){\r\n            if(_Employee.timeOfLeaveResumption>_Employee.employeeWithdrawalTime[employee]){\r\n                uint256 emittedTime =block.timestamp -_Employee.timeOfLeaveResumption;\r\n              \r\n              uint256 EmittedBalance = emittedTime/60 * _Employee.EmissionRatePerMinute;\r\n              require(_Employee.balanceBeforeLeave[msg.sender] > 0, \"Error:You never went on Leave\");\r\n              uint256 newBalance =_Employee.balanceBeforeLeave[msg.sender] + EmittedBalance;\r\n              delete  _Employee.balance[employee];\r\n              _Employee.balance[employee] =newBalance;\r\n              return _Employee.balance[employee];\r\n\r\n            }else{\r\n            uint256 emittedTime = block.timestamp - _Employee.employeeWithdrawalTime[employee];\r\n\r\n            uint256 newBalance = emittedTime/60 * _Employee.EmissionRatePerMinute;\r\n            // uint256 newBalance =\r\n            delete _Employee.balance[employee];\r\n            _Employee.balance[employee] =newBalance;\r\n            return _Employee.balance[employee];\r\n\r\n            }\r\n           \r\n            \r\n\r\n        }\r\n\r\n    }\r\n    function requestLeave() public checkIfEmployed(msg.sender){\r\n        \r\n        NewEmployee storage _employee =employeeRecord[msg.sender];\r\n        require(!_employee.isEmployeeOnLeave[msg.sender], \"You are already on leave\");\r\n        uint256 accruedBalance = getBalance(msg.sender);\r\n\r\n        delete _employee.balanceBeforeLeave[msg.sender];\r\n        _employee.balanceBeforeLeave[msg.sender] = accruedBalance;\r\n\r\n        delete _employee.EmissionRatePerMinute;\r\n        _employee.EmissionRatePerMinute = 0;\r\n\r\n        _employee.isEmployeeOnLeave[msg.sender] = true;\r\n\r\n        delete _employee.timeOfLeaveRequest;\r\n       _employee.timeOfLeaveRequest = block.timestamp;\r\n\r\n       _employee.hasBeenOnLeave = true;\r\n       \r\n       emit EmployeeLeaveRequest(msg.sender,block.timestamp);\r\n\r\n    }\r\n    function resumeLeave() public checkIfEmployed(msg.sender){\r\n         NewEmployee storage _employee =employeeRecord[msg.sender];\r\n        require(_employee.isEmployeeOnLeave[msg.sender], \"You are not on leave\");\r\n        // uint256 accruedBalance = getBalance(msg.sender);\r\n        delete _employee.EmissionRatePerMinute;\r\n        _employee.EmissionRatePerMinute = _employee.salaryAmount/30/24/60;\r\n\r\n        _employee.isEmployeeOnLeave[msg.sender] = false;\r\n\r\n         delete  _employee.timeOfLeaveResumption;\r\n        _employee.timeOfLeaveResumption =block.timestamp;\r\n        uint256 durationOfLeave = _employee.timeOfLeaveResumption -_employee.timeOfLeaveRequest;\r\n\r\n\r\n        emit EmployeeResumeLeave(msg.sender,durationOfLeave);\r\n\r\n    }\r\n        \r\n    // function hasInteractedWithSalary() internal  checkIfEmployed(msg.sender) isPaymentDue{\r\n    //      NewEmployee storage _employee =employeeRecord[msg.sender];\r\n\r\n    //      if(_employee.hasInteractedWithSalary == false){\r\n    //       uint256 salary = _employee.salaryAmount;\r\n    //      _employee.balance[msg.sender] += salary;\r\n    //      _employee.hasInteractedWithSalary = true;\r\n    //      }\r\n        \r\n   \r\n    // }\r\n    // function leaveOfAbsense\r\n    function severanceFee(address employee) internal onlyOwner enoughTokensLeft(getBalance(employee)){\r\n        \r\n         employeePaymentToken.transferFrom(_owner,employee,getBalance(employee));\r\n\r\n         emit severanceFeePaid(employee,getBalance(employee),block.timestamp);\r\n\r\n    }\r\n\r\n    function claimPayment(uint256 amountToWithdraw) public isPaymentDue  checkIfEmployed(msg.sender) enoughTokensLeft(amountToWithdraw) {\r\n       getBalance(msg.sender);\r\n        amountToWithdraw= amountToWithdraw*10**18;\r\n\r\n        NewEmployee storage _employee =employeeRecord[msg.sender];\r\n        uint256 availableToWithdraw =_employee.balance[msg.sender];\r\n\r\n        // require(!_employee.receivedFullPayment,\"You have withdrawn your full salary\");\r\n        require(availableToWithdraw >= amountToWithdraw,\"Your balance is less than the amount you wish to withdraw\");\r\n\r\n        // employeePaymentToken.transferFrom(_owner,msg.sender,amountToWithdraw);\r\n         employeePaymentToken.transferFrom(_owner,msg.sender,amountToWithdraw);\r\n        // _employee.balance[msg.sender] -= amountToWithdraw;\r\n        // _employee.balance[msg.sender]== 0 ?  _employee.receivedFullPayment = true: _employee.receivedFullPayment;\r\n       \r\n        delete _employee.employeeWithdrawalTime[msg.sender];\r\n        // uint256 currentTime = block.timestamp;\r\n         _employee.employeeWithdrawalTime[msg.sender]= block.timestamp;\r\n         _employee.claimedPaymentAtAnyTime[msg.sender] =true;\r\n         emit ClaimedSalary(msg.sender,availableToWithdraw,block.timestamp);\r\n        \r\n\r\n\r\n    }\r\n    // function setEmployeeToken(address _newEmployeetoken)\r\n    //     internal\r\n    //     onlyOwner\r\n\r\n    // {\r\n    //     employeePaymentToken = EmployeePaymentToken(_newEmployeetoken);\r\n    // }\r\n\r\n\r\n}",
  "sourcePath": "C:\\Users\\Daniel Awodeji\\Desktop\\payment\\contracts\\Payroll.sol",
  "compiler": {
    "name": "solc",
    "version": "0.8.15+commit.e14f2714.Emscripten.clang"
  },
  "schemaVersion": "3.4.4",
  "updatedAt": "2022-09-29T20:23:22.378Z",
  "networkType": "ethereum",
  "devdoc": {
    "kind": "dev",
    "methods": {
      "owner()": {
        "details": "Returns the address of the current owner."
      },
      "renounceOwnership()": {
        "details": "Leaves the contract without owner. It will not be possible to call `onlyOwner` functions anymore. Can only be called by the current owner. NOTE: Renouncing ownership will leave the contract without an owner, thereby removing any functionality that is only available to the owner."
      },
      "transferOwnership(address)": {
        "details": "Transfers ownership of the contract to a new account (`newOwner`). Can only be called by the current owner."
      }
    },
    "version": 1
  },
  "userdoc": {
    "kind": "user",
    "methods": {
      "_owner()": {
        "notice": "bytes32 private merklerootOfEmployees ;"
      }
    },
    "version": 1
  }
}